{
  "_format": "hh-sol-artifact-1",
  "contractName": "Logbookd",
  "sourceName": "contracts/Logbookd.sol",
  "abi": [
    {
      "inputs": [
        {
          "internalType": "address",
          "name": "initOwner",
          "type": "address"
        }
      ],
      "stateMutability": "nonpayable",
      "type": "constructor"
    },
    {
      "inputs": [
        {
          "internalType": "address",
          "name": "owner",
          "type": "address"
        }
      ],
      "name": "OwnableInvalidOwner",
      "type": "error"
    },
    {
      "inputs": [
        {
          "internalType": "address",
          "name": "account",
          "type": "address"
        }
      ],
      "name": "OwnableUnauthorizedAccount",
      "type": "error"
    },
    {
      "anonymous": false,
      "inputs": [
        {
          "indexed": true,
          "internalType": "address",
          "name": "previousOwner",
          "type": "address"
        },
        {
          "indexed": true,
          "internalType": "address",
          "name": "newOwner",
          "type": "address"
        }
      ],
      "name": "OwnershipTransferred",
      "type": "event"
    },
    {
      "anonymous": false,
      "inputs": [
        {
          "indexed": false,
          "internalType": "uint256[]",
          "name": "_reArr",
          "type": "uint256[]"
        }
      ],
      "name": "searchResult",
      "type": "event"
    },
    {
      "anonymous": false,
      "inputs": [
        {
          "indexed": false,
          "internalType": "uint256",
          "name": "_usrId",
          "type": "uint256"
        }
      ],
      "name": "userRegistered",
      "type": "event"
    },
    {
      "inputs": [
        {
          "internalType": "string",
          "name": "_name",
          "type": "string"
        },
        {
          "internalType": "string",
          "name": "_usn",
          "type": "string"
        },
        {
          "internalType": "uint8",
          "name": "_batch",
          "type": "uint8"
        },
        {
          "internalType": "uint16",
          "name": "_mobNum",
          "type": "uint16"
        }
      ],
      "name": "addNewUser",
      "outputs": [
        {
          "internalType": "bool",
          "name": "",
          "type": "bool"
        }
      ],
      "stateMutability": "nonpayable",
      "type": "function"
    },
    {
      "inputs": [],
      "name": "owner",
      "outputs": [
        {
          "internalType": "address",
          "name": "",
          "type": "address"
        }
      ],
      "stateMutability": "view",
      "type": "function"
    },
    {
      "inputs": [],
      "name": "renounceOwnership",
      "outputs": [],
      "stateMutability": "nonpayable",
      "type": "function"
    },
    {
      "inputs": [
        {
          "internalType": "uint8",
          "name": "_batch",
          "type": "uint8"
        }
      ],
      "name": "searchByBatch",
      "outputs": [
        {
          "internalType": "bool",
          "name": "",
          "type": "bool"
        }
      ],
      "stateMutability": "nonpayable",
      "type": "function"
    },
    {
      "inputs": [
        {
          "internalType": "string",
          "name": "_name",
          "type": "string"
        }
      ],
      "name": "searchByName",
      "outputs": [
        {
          "internalType": "bool",
          "name": "",
          "type": "bool"
        }
      ],
      "stateMutability": "nonpayable",
      "type": "function"
    },
    {
      "inputs": [
        {
          "internalType": "address",
          "name": "newOwner",
          "type": "address"
        }
      ],
      "name": "transferOwnership",
      "outputs": [],
      "stateMutability": "nonpayable",
      "type": "function"
    }
  ],
  "bytecode": "0x608060405260006001553480156200001657600080fd5b506040516200156c3803806200156c83398181016040528101906200003c9190620001f9565b80600073ffffffffffffffffffffffffffffffffffffffff168173ffffffffffffffffffffffffffffffffffffffff1603620000b25760006040517f1e4fbdf7000000000000000000000000000000000000000000000000000000008152600401620000a991906200023c565b60405180910390fd5b620000c381620000cb60201b60201c565b505062000259565b60008060009054906101000a900473ffffffffffffffffffffffffffffffffffffffff169050816000806101000a81548173ffffffffffffffffffffffffffffffffffffffff021916908373ffffffffffffffffffffffffffffffffffffffff1602179055508173ffffffffffffffffffffffffffffffffffffffff168173ffffffffffffffffffffffffffffffffffffffff167f8be0079c531659141344cd1fd0a4f28419497f9722a3daafe3b4186f6b6457e060405160405180910390a35050565b600080fd5b600073ffffffffffffffffffffffffffffffffffffffff82169050919050565b6000620001c18262000194565b9050919050565b620001d381620001b4565b8114620001df57600080fd5b50565b600081519050620001f381620001c8565b92915050565b6000602082840312156200021257620002116200018f565b5b60006200022284828501620001e2565b91505092915050565b6200023681620001b4565b82525050565b60006020820190506200025360008301846200022b565b92915050565b61130380620002696000396000f3fe608060405234801561001057600080fd5b50600436106100625760003560e01c8063715018a6146100675780638da5cb5b14610071578063da1132701461008f578063ddbbc35c146100bf578063f2fde38b146100ef578063f601872d1461010b575b600080fd5b61006f61013b565b005b61007961014f565b6040516100869190610846565b60405180910390f35b6100a960048036038101906100a49190610943565b610178565b6040516100b69190610a05565b60405180910390f35b6100d960048036038101906100d49190610a20565b610445565b6040516100e69190610a05565b60405180910390f35b61010960048036038101906101049190610a99565b610556565b005b61012560048036038101906101209190610ac6565b6105dc565b6040516101329190610a05565b60405180910390f35b6101436106b2565b61014d6000610739565b565b60008060009054906101000a900473ffffffffffffffffffffffffffffffffffffffff16905090565b60006101826106b2565b600087879050116101c8576040517f08c379a00000000000000000000000000000000000000000000000000000000081526004016101bf90610b50565b60405180910390fd5b6000858590501161020e576040517f08c379a000000000000000000000000000000000000000000000000000000000815260040161020590610bbc565b60405180910390fd5b6107ea8360ff161015610256576040517f08c379a000000000000000000000000000000000000000000000000000000000815260040161024d90610c28565b60405180910390fd5b60008261ffff161161029d576040517f08c379a000000000000000000000000000000000000000000000000000000000815260040161029490610c94565b60405180910390fd5b6000604051806080016040528089898080601f016020809104026020016040519081016040528093929190818152602001838380828437600081840152601f19601f82011690508083019250505050505050815260200187878080601f016020809104026020016040519081016040528093929190818152602001838380828437600081840152601f19601f8201169050808301925050505050505081526020018560ff1681526020018461ffff16815250905080600260006001548152602001908152602001600020600082015181600001908161037c9190610f04565b5060208201518160010190816103929190610f04565b5060408201518160020160006101000a81548160ff021916908360ff16021790555060608201518160020160016101000a81548161ffff021916908361ffff160217905550905050600160008154809291906103ed90611005565b91905055507f6b7a42e3768fc24ff05fc49e251816434f842a132416160282a290142dbdefd260018054610421919061104d565b60405161042e9190611090565b60405180910390a160019150509695505050505050565b600080600090505b60015481116104fb5783836040516020016104699291906110ea565b60405160208183030381529060405280519060200120600260008381526020019081526020016000206000016040516020016104a59190611186565b60405160208183030381529060405280519060200120036104ea5760038190806001815401808255809150506001900390600052602060002001600090919091909150555b806104f490611005565b905061044d565b506000600380549050111561054b577fd21427eb54e1d40e4c0f6f84b7c74450d0176e1471a29af09d84d1a2ae008304600360405161053a91906112ab565b60405180910390a160019050610550565b600090505b92915050565b61055e6106b2565b600073ffffffffffffffffffffffffffffffffffffffff168173ffffffffffffffffffffffffffffffffffffffff16036105d05760006040517f1e4fbdf70000000000000000000000000000000000000000000000000000000081526004016105c79190610846565b60405180910390fd5b6105d981610739565b50565b600080600090505b6001548111610658578260ff166002600083815260200190815260200160002060020160009054906101000a900460ff1660ff16036106475760038190806001815401808255809150506001900390600052602060002001600090919091909150555b8061065190611005565b90506105e4565b50600060038054905011156106a8577fd21427eb54e1d40e4c0f6f84b7c74450d0176e1471a29af09d84d1a2ae008304600360405161069791906112ab565b60405180910390a1600190506106ad565b600090505b919050565b6106ba6107fd565b73ffffffffffffffffffffffffffffffffffffffff166106d861014f565b73ffffffffffffffffffffffffffffffffffffffff1614610737576106fb6107fd565b6040517f118cdaa700000000000000000000000000000000000000000000000000000000815260040161072e9190610846565b60405180910390fd5b565b60008060009054906101000a900473ffffffffffffffffffffffffffffffffffffffff169050816000806101000a81548173ffffffffffffffffffffffffffffffffffffffff021916908373ffffffffffffffffffffffffffffffffffffffff1602179055508173ffffffffffffffffffffffffffffffffffffffff168173ffffffffffffffffffffffffffffffffffffffff167f8be0079c531659141344cd1fd0a4f28419497f9722a3daafe3b4186f6b6457e060405160405180910390a35050565b600033905090565b600073ffffffffffffffffffffffffffffffffffffffff82169050919050565b600061083082610805565b9050919050565b61084081610825565b82525050565b600060208201905061085b6000830184610837565b92915050565b600080fd5b600080fd5b600080fd5b600080fd5b600080fd5b60008083601f8401126108905761088f61086b565b5b8235905067ffffffffffffffff8111156108ad576108ac610870565b5b6020830191508360018202830111156108c9576108c8610875565b5b9250929050565b600060ff82169050919050565b6108e6816108d0565b81146108f157600080fd5b50565b600081359050610903816108dd565b92915050565b600061ffff82169050919050565b61092081610909565b811461092b57600080fd5b50565b60008135905061093d81610917565b92915050565b600080600080600080608087890312156109605761095f610861565b5b600087013567ffffffffffffffff81111561097e5761097d610866565b5b61098a89828a0161087a565b9650965050602087013567ffffffffffffffff8111156109ad576109ac610866565b5b6109b989828a0161087a565b945094505060406109cc89828a016108f4565b92505060606109dd89828a0161092e565b9150509295509295509295565b60008115159050919050565b6109ff816109ea565b82525050565b6000602082019050610a1a60008301846109f6565b92915050565b60008060208385031215610a3757610a36610861565b5b600083013567ffffffffffffffff811115610a5557610a54610866565b5b610a618582860161087a565b92509250509250929050565b610a7681610825565b8114610a8157600080fd5b50565b600081359050610a9381610a6d565b92915050565b600060208284031215610aaf57610aae610861565b5b6000610abd84828501610a84565b91505092915050565b600060208284031215610adc57610adb610861565b5b6000610aea848285016108f4565b91505092915050565b600082825260208201905092915050565b7f6e616d6520726571756972656400000000000000000000000000000000000000600082015250565b6000610b3a600d83610af3565b9150610b4582610b04565b602082019050919050565b60006020820190508181036000830152610b6981610b2d565b9050919050565b7f75736e2072657175697265640000000000000000000000000000000000000000600082015250565b6000610ba6600c83610af3565b9150610bb182610b70565b602082019050919050565b60006020820190508181036000830152610bd581610b99565b9050919050565b7f6261746368206d75737420626520616674657220323032360000000000000000600082015250565b6000610c12601883610af3565b9150610c1d82610bdc565b602082019050919050565b60006020820190508181036000830152610c4181610c05565b9050919050565b7f636f6e74616374206e756d626572207265717569726564000000000000000000600082015250565b6000610c7e601783610af3565b9150610c8982610c48565b602082019050919050565b60006020820190508181036000830152610cad81610c71565b9050919050565b600081519050919050565b7f4e487b7100000000000000000000000000000000000000000000000000000000600052604160045260246000fd5b7f4e487b7100000000000000000000000000000000000000000000000000000000600052602260045260246000fd5b60006002820490506001821680610d3557607f821691505b602082108103610d4857610d47610cee565b5b50919050565b60008190508160005260206000209050919050565b60006020601f8301049050919050565b600082821b905092915050565b600060088302610db07fffffffffffffffffffffffffffffffffffffffffffffffffffffffffffffffff82610d73565b610dba8683610d73565b95508019841693508086168417925050509392505050565b6000819050919050565b6000819050919050565b6000610e01610dfc610df784610dd2565b610ddc565b610dd2565b9050919050565b6000819050919050565b610e1b83610de6565b610e2f610e2782610e08565b848454610d80565b825550505050565b600090565b610e44610e37565b610e4f818484610e12565b505050565b5b81811015610e7357610e68600082610e3c565b600181019050610e55565b5050565b601f821115610eb857610e8981610d4e565b610e9284610d63565b81016020851015610ea1578190505b610eb5610ead85610d63565b830182610e54565b50505b505050565b600082821c905092915050565b6000610edb60001984600802610ebd565b1980831691505092915050565b6000610ef48383610eca565b9150826002028217905092915050565b610f0d82610cb4565b67ffffffffffffffff811115610f2657610f25610cbf565b5b610f308254610d1d565b610f3b828285610e77565b600060209050601f831160018114610f6e5760008415610f5c578287015190505b610f668582610ee8565b865550610fce565b601f198416610f7c86610d4e565b60005b82811015610fa457848901518255600182019150602085019450602081019050610f7f565b86831015610fc15784890151610fbd601f891682610eca565b8355505b6001600288020188555050505b505050505050565b7f4e487b7100000000000000000000000000000000000000000000000000000000600052601160045260246000fd5b600061101082610dd2565b91507fffffffffffffffffffffffffffffffffffffffffffffffffffffffffffffffff820361104257611041610fd6565b5b600182019050919050565b600061105882610dd2565b915061106383610dd2565b925082820390508181111561107b5761107a610fd6565b5b92915050565b61108a81610dd2565b82525050565b60006020820190506110a56000830184611081565b92915050565b600081905092915050565b82818337600083830152505050565b60006110d183856110ab565b93506110de8385846110b6565b82840190509392505050565b60006110f78284866110c5565b91508190509392505050565b6000815461111081610d1d565b61111a81866110ab565b94506001821660008114611135576001811461114a5761117d565b60ff198316865281151582028601935061117d565b61115385610d4e565b60005b8381101561117557815481890152600182019150602081019050611156565b838801955050505b50505092915050565b60006111928284611103565b915081905092915050565b600081549050919050565b600082825260208201905092915050565b60008190508160005260206000209050919050565b6111d781610dd2565b82525050565b60006111e983836111ce565b60208301905092915050565b60008160001c9050919050565b6000819050919050565b600061121f61121a836111f5565b611202565b9050919050565b6000611232825461120c565b9050919050565b6000600182019050919050565b60006112518261119d565b61125b81856111a8565b9350611266836111b9565b8060005b8381101561129e5761127b82611226565b61128588826111dd565b975061129083611239565b92505060018101905061126a565b5085935050505092915050565b600060208201905081810360008301526112c58184611246565b90509291505056fea264697066735822122019e8b9fe3c67cad1faeddec6ecc9babcc05742ee7a17d2e478fcca8f4433740364736f6c63430008180033",
  "linkReferences": {},
  "deployedLinkReferences": {}
}