{
  "_format": "hh-sol-artifact-1",
  "contractName": "Logbookd",
  "sourceName": "contracts/Logbookd.sol",
  "abi": [
    {
      "inputs": [
        {
          "internalType": "address",
          "name": "initOwner",
          "type": "address"
        }
      ],
      "stateMutability": "nonpayable",
      "type": "constructor"
    },
    {
      "inputs": [
        {
          "internalType": "address",
          "name": "owner",
          "type": "address"
        }
      ],
      "name": "OwnableInvalidOwner",
      "type": "error"
    },
    {
      "inputs": [
        {
          "internalType": "address",
          "name": "account",
          "type": "address"
        }
      ],
      "name": "OwnableUnauthorizedAccount",
      "type": "error"
    },
    {
      "anonymous": false,
      "inputs": [
        {
          "indexed": true,
          "internalType": "address",
          "name": "previousOwner",
          "type": "address"
        },
        {
          "indexed": true,
          "internalType": "address",
          "name": "newOwner",
          "type": "address"
        }
      ],
      "name": "OwnershipTransferred",
      "type": "event"
    },
    {
      "anonymous": false,
      "inputs": [
        {
          "indexed": false,
          "internalType": "uint256",
          "name": "_usrId",
          "type": "uint256"
        }
      ],
      "name": "userRegistered",
      "type": "event"
    },
    {
      "inputs": [
        {
          "internalType": "string",
          "name": "_name",
          "type": "string"
        },
        {
          "internalType": "string",
          "name": "_usn",
          "type": "string"
        },
        {
          "internalType": "uint8",
          "name": "_batch",
          "type": "uint8"
        },
        {
          "internalType": "uint16",
          "name": "_mobNum",
          "type": "uint16"
        }
      ],
      "name": "addNewUser",
      "outputs": [
        {
          "internalType": "bool",
          "name": "",
          "type": "bool"
        }
      ],
      "stateMutability": "nonpayable",
      "type": "function"
    },
    {
      "inputs": [],
      "name": "owner",
      "outputs": [
        {
          "internalType": "address",
          "name": "",
          "type": "address"
        }
      ],
      "stateMutability": "view",
      "type": "function"
    },
    {
      "inputs": [],
      "name": "renounceOwnership",
      "outputs": [],
      "stateMutability": "nonpayable",
      "type": "function"
    },
    {
      "inputs": [
        {
          "internalType": "address",
          "name": "newOwner",
          "type": "address"
        }
      ],
      "name": "transferOwnership",
      "outputs": [],
      "stateMutability": "nonpayable",
      "type": "function"
    }
  ],
  "bytecode": "0x608060405260006001553480156200001657600080fd5b50604051620010733803806200107383398181016040528101906200003c9190620001f9565b80600073ffffffffffffffffffffffffffffffffffffffff168173ffffffffffffffffffffffffffffffffffffffff1603620000b25760006040517f1e4fbdf7000000000000000000000000000000000000000000000000000000008152600401620000a991906200023c565b60405180910390fd5b620000c381620000cb60201b60201c565b505062000259565b60008060009054906101000a900473ffffffffffffffffffffffffffffffffffffffff169050816000806101000a81548173ffffffffffffffffffffffffffffffffffffffff021916908373ffffffffffffffffffffffffffffffffffffffff1602179055508173ffffffffffffffffffffffffffffffffffffffff168173ffffffffffffffffffffffffffffffffffffffff167f8be0079c531659141344cd1fd0a4f28419497f9722a3daafe3b4186f6b6457e060405160405180910390a35050565b600080fd5b600073ffffffffffffffffffffffffffffffffffffffff82169050919050565b6000620001c18262000194565b9050919050565b620001d381620001b4565b8114620001df57600080fd5b50565b600081519050620001f381620001c8565b92915050565b6000602082840312156200021257620002116200018f565b5b60006200022284828501620001e2565b91505092915050565b6200023681620001b4565b82525050565b60006020820190506200025360008301846200022b565b92915050565b610e0a80620002696000396000f3fe608060405234801561001057600080fd5b506004361061004c5760003560e01c8063715018a6146100515780638da5cb5b1461005b578063da11327014610079578063f2fde38b146100a9575b600080fd5b6100596100c5565b005b6100636100d9565b60405161007091906105e9565b60405180910390f35b610093600480360381019061008e91906106e6565b610102565b6040516100a091906107a8565b60405180910390f35b6100c360048036038101906100be91906107ef565b6103cf565b005b6100cd610455565b6100d760006104dc565b565b60008060009054906101000a900473ffffffffffffffffffffffffffffffffffffffff16905090565b600061010c610455565b60008787905011610152576040517f08c379a000000000000000000000000000000000000000000000000000000000815260040161014990610879565b60405180910390fd5b60008585905011610198576040517f08c379a000000000000000000000000000000000000000000000000000000000815260040161018f906108e5565b60405180910390fd5b6107ea8360ff1610156101e0576040517f08c379a00000000000000000000000000000000000000000000000000000000081526004016101d790610951565b60405180910390fd5b60008261ffff1611610227576040517f08c379a000000000000000000000000000000000000000000000000000000000815260040161021e906109bd565b60405180910390fd5b6000604051806080016040528089898080601f016020809104026020016040519081016040528093929190818152602001838380828437600081840152601f19601f82011690508083019250505050505050815260200187878080601f016020809104026020016040519081016040528093929190818152602001838380828437600081840152601f19601f8201169050808301925050505050505081526020018560ff1681526020018461ffff1681525090508060026000600154815260200190815260200160002060008201518160000190816103069190610c2d565b50602082015181600101908161031c9190610c2d565b5060408201518160020160006101000a81548160ff021916908360ff16021790555060608201518160020160016101000a81548161ffff021916908361ffff1602179055509050506001600081548092919061037790610d2e565b91905055507f6b7a42e3768fc24ff05fc49e251816434f842a132416160282a290142dbdefd2600180546103ab9190610d76565b6040516103b89190610db9565b60405180910390a160019150509695505050505050565b6103d7610455565b600073ffffffffffffffffffffffffffffffffffffffff168173ffffffffffffffffffffffffffffffffffffffff16036104495760006040517f1e4fbdf700000000000000000000000000000000000000000000000000000000815260040161044091906105e9565b60405180910390fd5b610452816104dc565b50565b61045d6105a0565b73ffffffffffffffffffffffffffffffffffffffff1661047b6100d9565b73ffffffffffffffffffffffffffffffffffffffff16146104da5761049e6105a0565b6040517f118cdaa70000000000000000000000000000000000000000000000000000000081526004016104d191906105e9565b60405180910390fd5b565b60008060009054906101000a900473ffffffffffffffffffffffffffffffffffffffff169050816000806101000a81548173ffffffffffffffffffffffffffffffffffffffff021916908373ffffffffffffffffffffffffffffffffffffffff1602179055508173ffffffffffffffffffffffffffffffffffffffff168173ffffffffffffffffffffffffffffffffffffffff167f8be0079c531659141344cd1fd0a4f28419497f9722a3daafe3b4186f6b6457e060405160405180910390a35050565b600033905090565b600073ffffffffffffffffffffffffffffffffffffffff82169050919050565b60006105d3826105a8565b9050919050565b6105e3816105c8565b82525050565b60006020820190506105fe60008301846105da565b92915050565b600080fd5b600080fd5b600080fd5b600080fd5b600080fd5b60008083601f8401126106335761063261060e565b5b8235905067ffffffffffffffff8111156106505761064f610613565b5b60208301915083600182028301111561066c5761066b610618565b5b9250929050565b600060ff82169050919050565b61068981610673565b811461069457600080fd5b50565b6000813590506106a681610680565b92915050565b600061ffff82169050919050565b6106c3816106ac565b81146106ce57600080fd5b50565b6000813590506106e0816106ba565b92915050565b6000806000806000806080878903121561070357610702610604565b5b600087013567ffffffffffffffff81111561072157610720610609565b5b61072d89828a0161061d565b9650965050602087013567ffffffffffffffff8111156107505761074f610609565b5b61075c89828a0161061d565b9450945050604061076f89828a01610697565b925050606061078089828a016106d1565b9150509295509295509295565b60008115159050919050565b6107a28161078d565b82525050565b60006020820190506107bd6000830184610799565b92915050565b6107cc816105c8565b81146107d757600080fd5b50565b6000813590506107e9816107c3565b92915050565b60006020828403121561080557610804610604565b5b6000610813848285016107da565b91505092915050565b600082825260208201905092915050565b7f6e616d6520726571756972656400000000000000000000000000000000000000600082015250565b6000610863600d8361081c565b915061086e8261082d565b602082019050919050565b6000602082019050818103600083015261089281610856565b9050919050565b7f75736e2072657175697265640000000000000000000000000000000000000000600082015250565b60006108cf600c8361081c565b91506108da82610899565b602082019050919050565b600060208201905081810360008301526108fe816108c2565b9050919050565b7f6261746368206d75737420626520616674657220323032360000000000000000600082015250565b600061093b60188361081c565b915061094682610905565b602082019050919050565b6000602082019050818103600083015261096a8161092e565b9050919050565b7f636f6e74616374206e756d626572207265717569726564000000000000000000600082015250565b60006109a760178361081c565b91506109b282610971565b602082019050919050565b600060208201905081810360008301526109d68161099a565b9050919050565b600081519050919050565b7f4e487b7100000000000000000000000000000000000000000000000000000000600052604160045260246000fd5b7f4e487b7100000000000000000000000000000000000000000000000000000000600052602260045260246000fd5b60006002820490506001821680610a5e57607f821691505b602082108103610a7157610a70610a17565b5b50919050565b60008190508160005260206000209050919050565b60006020601f8301049050919050565b600082821b905092915050565b600060088302610ad97fffffffffffffffffffffffffffffffffffffffffffffffffffffffffffffffff82610a9c565b610ae38683610a9c565b95508019841693508086168417925050509392505050565b6000819050919050565b6000819050919050565b6000610b2a610b25610b2084610afb565b610b05565b610afb565b9050919050565b6000819050919050565b610b4483610b0f565b610b58610b5082610b31565b848454610aa9565b825550505050565b600090565b610b6d610b60565b610b78818484610b3b565b505050565b5b81811015610b9c57610b91600082610b65565b600181019050610b7e565b5050565b601f821115610be157610bb281610a77565b610bbb84610a8c565b81016020851015610bca578190505b610bde610bd685610a8c565b830182610b7d565b50505b505050565b600082821c905092915050565b6000610c0460001984600802610be6565b1980831691505092915050565b6000610c1d8383610bf3565b9150826002028217905092915050565b610c36826109dd565b67ffffffffffffffff811115610c4f57610c4e6109e8565b5b610c598254610a46565b610c64828285610ba0565b600060209050601f831160018114610c975760008415610c85578287015190505b610c8f8582610c11565b865550610cf7565b601f198416610ca586610a77565b60005b82811015610ccd57848901518255600182019150602085019450602081019050610ca8565b86831015610cea5784890151610ce6601f891682610bf3565b8355505b6001600288020188555050505b505050505050565b7f4e487b7100000000000000000000000000000000000000000000000000000000600052601160045260246000fd5b6000610d3982610afb565b91507fffffffffffffffffffffffffffffffffffffffffffffffffffffffffffffffff8203610d6b57610d6a610cff565b5b600182019050919050565b6000610d8182610afb565b9150610d8c83610afb565b9250828203905081811115610da457610da3610cff565b5b92915050565b610db381610afb565b82525050565b6000602082019050610dce6000830184610daa565b9291505056fea2646970667358221220f5e016fb462054aa681a952a30f5ef41f1708c563eaebf272a83cc2d08a74ecf64736f6c63430008180033",
  "linkReferences": {},
  "deployedLinkReferences": {}
}